{
  "_format": "hh-sol-artifact-1",
  "contractName": "NonceBloxLottery",
  "sourceName": "contracts/NonceBlox.sol",
  "abi": [
    {
      "inputs": [
        {
          "internalType": "address",
          "name": "vrfCoordinator",
          "type": "address"
        },
        {
          "internalType": "address",
          "name": "linkToken",
          "type": "address"
        },
        {
          "internalType": "uint256",
          "name": "vrfFee",
          "type": "uint256"
        }
      ],
      "stateMutability": "nonpayable",
      "type": "constructor"
    },
    {
      "anonymous": false,
      "inputs": [
        {
          "indexed": false,
          "internalType": "uint256",
          "name": "lotteryId",
          "type": "uint256"
        },
        {
          "indexed": false,
          "internalType": "address",
          "name": "winner",
          "type": "address"
        },
        {
          "indexed": false,
          "internalType": "bytes32",
          "name": "requestId",
          "type": "bytes32"
        }
      ],
      "name": "LotteryEnded",
      "type": "event"
    },
    {
      "anonymous": false,
      "inputs": [
        {
          "indexed": false,
          "internalType": "uint256",
          "name": "lotteryId",
          "type": "uint256"
        },
        {
          "indexed": false,
          "internalType": "uint256",
          "name": "entryFee",
          "type": "uint256"
        }
      ],
      "name": "LotteryStarted",
      "type": "event"
    },
    {
      "anonymous": false,
      "inputs": [
        {
          "indexed": true,
          "internalType": "address",
          "name": "previousOwner",
          "type": "address"
        },
        {
          "indexed": true,
          "internalType": "address",
          "name": "newOwner",
          "type": "address"
        }
      ],
      "name": "OwnershipTransferred",
      "type": "event"
    },
    {
      "anonymous": false,
      "inputs": [
        {
          "indexed": false,
          "internalType": "uint256",
          "name": "lotteryId",
          "type": "uint256"
        },
        {
          "indexed": false,
          "internalType": "address",
          "name": "player",
          "type": "address"
        }
      ],
      "name": "PlayerJoined",
      "type": "event"
    },
    {
      "anonymous": false,
      "inputs": [
        {
          "indexed": false,
          "internalType": "bytes32",
          "name": "requestId",
          "type": "bytes32"
        }
      ],
      "name": "RequestedRandomness",
      "type": "event"
    },
    {
      "stateMutability": "payable",
      "type": "fallback"
    },
    {
      "inputs": [],
      "name": "PlayLottery",
      "outputs": [],
      "stateMutability": "payable",
      "type": "function"
    },
    {
      "inputs": [],
      "name": "entryFee",
      "outputs": [
        {
          "internalType": "uint256",
          "name": "",
          "type": "uint256"
        }
      ],
      "stateMutability": "view",
      "type": "function"
    },
    {
      "inputs": [],
      "name": "fee",
      "outputs": [
        {
          "internalType": "uint256",
          "name": "",
          "type": "uint256"
        }
      ],
      "stateMutability": "view",
      "type": "function"
    },
    {
      "inputs": [],
      "name": "keyHash",
      "outputs": [
        {
          "internalType": "bytes32",
          "name": "",
          "type": "bytes32"
        }
      ],
      "stateMutability": "view",
      "type": "function"
    },
    {
      "inputs": [],
      "name": "lotteryId",
      "outputs": [
        {
          "internalType": "uint256",
          "name": "",
          "type": "uint256"
        }
      ],
      "stateMutability": "view",
      "type": "function"
    },
    {
      "inputs": [],
      "name": "lottery_state",
      "outputs": [
        {
          "internalType": "enum NonceBloxLottery.LOTTERY_STATE",
          "name": "",
          "type": "uint8"
        }
      ],
      "stateMutability": "view",
      "type": "function"
    },
    {
      "inputs": [],
      "name": "owner",
      "outputs": [
        {
          "internalType": "address",
          "name": "",
          "type": "address"
        }
      ],
      "stateMutability": "view",
      "type": "function"
    },
    {
      "inputs": [],
      "name": "pickRandomWinner",
      "outputs": [
        {
          "internalType": "bytes32",
          "name": "requestId",
          "type": "bytes32"
        }
      ],
      "stateMutability": "nonpayable",
      "type": "function"
    },
    {
      "inputs": [
        {
          "internalType": "uint256",
          "name": "",
          "type": "uint256"
        }
      ],
      "name": "players",
      "outputs": [
        {
          "internalType": "address",
          "name": "",
          "type": "address"
        }
      ],
      "stateMutability": "view",
      "type": "function"
    },
    {
      "inputs": [
        {
          "internalType": "bytes32",
          "name": "requestId",
          "type": "bytes32"
        },
        {
          "internalType": "uint256",
          "name": "randomness",
          "type": "uint256"
        }
      ],
      "name": "rawFulfillRandomness",
      "outputs": [],
      "stateMutability": "nonpayable",
      "type": "function"
    },
    {
      "inputs": [],
      "name": "renounceOwnership",
      "outputs": [],
      "stateMutability": "nonpayable",
      "type": "function"
    },
    {
      "inputs": [
        {
          "internalType": "uint256",
          "name": "_entryFee",
          "type": "uint256"
        }
      ],
      "name": "startLottery",
      "outputs": [],
      "stateMutability": "nonpayable",
      "type": "function"
    },
    {
      "inputs": [],
      "name": "timeLimit",
      "outputs": [
        {
          "internalType": "uint256",
          "name": "",
          "type": "uint256"
        }
      ],
      "stateMutability": "view",
      "type": "function"
    },
    {
      "inputs": [
        {
          "internalType": "address",
          "name": "newOwner",
          "type": "address"
        }
      ],
      "name": "transferOwnership",
      "outputs": [],
      "stateMutability": "nonpayable",
      "type": "function"
    },
    {
      "stateMutability": "payable",
      "type": "receive"
    }
  ],
  "bytecode": "0x60c06040527f3ebe2809e8ab9ecade58008e52868676fb39c3bd42c381c9949421a49d03541a60001b6004553480156200003857600080fd5b5060405162001f4e38038062001f4e83398181016040528101906200005e91906200024d565b82828173ffffffffffffffffffffffffffffffffffffffff1660a08173ffffffffffffffffffffffffffffffffffffffff1660601b815250508073ffffffffffffffffffffffffffffffffffffffff1660808173ffffffffffffffffffffffffffffffffffffffff1660601b815250505050620000f0620000e46200015160201b60201c565b6200015960201b60201c565b8060028190555060018060146101000a81548160ff0219169083600281111562000143577f4e487b7100000000000000000000000000000000000000000000000000000000600052602160045260246000fd5b021790555050505062000315565b600033905090565b6000600160009054906101000a900473ffffffffffffffffffffffffffffffffffffffff16905081600160006101000a81548173ffffffffffffffffffffffffffffffffffffffff021916908373ffffffffffffffffffffffffffffffffffffffff1602179055508173ffffffffffffffffffffffffffffffffffffffff168173ffffffffffffffffffffffffffffffffffffffff167f8be0079c531659141344cd1fd0a4f28419497f9722a3daafe3b4186f6b6457e060405160405180910390a35050565b6000815190506200023081620002e1565b92915050565b6000815190506200024781620002fb565b92915050565b6000806000606084860312156200026357600080fd5b600062000273868287016200021f565b935050602062000286868287016200021f565b9250506040620002998682870162000236565b9150509250925092565b6000620002b082620002b7565b9050919050565b600073ffffffffffffffffffffffffffffffffffffffff82169050919050565b6000819050919050565b620002ec81620002a3565b8114620002f857600080fd5b50565b6200030681620002d7565b81146200031257600080fd5b50565b60805160601c60a05160601c611bff6200034f600039600081816106020152610cf00152600081816104db0152610cb40152611bff6000f3fe6080604052600436106100e15760003560e01c80639fa7f7ea1161007f578063ddca3f4311610059578063ddca3f431461025f578063e580f47b1461028a578063f2fde38b146102b5578063f71d96cb146102de576100e8565b80639fa7f7ea14610201578063c08d1fe51461020b578063c6bec93a14610236576100e8565b806381447999116100bb5780638144799914610157578063898da229146101825780638da5cb5b146101ad57806394985ddd146101d8576100e8565b8063072ea61c146100ea57806361728f3914610115578063715018a614610140576100e8565b366100e857005b005b3480156100f657600080fd5b506100ff61031b565b60405161010c9190611665565b60405180910390f35b34801561012157600080fd5b5061012a610321565b6040516101379190611481565b60405180910390f35b34801561014c57600080fd5b50610155610327565b005b34801561016357600080fd5b5061016c6103af565b604051610179919061150a565b60405180910390f35b34801561018e57600080fd5b506101976103c2565b6040516101a49190611481565b60405180910390f35b3480156101b957600080fd5b506101c26105d6565b6040516101cf9190611428565b60405180910390f35b3480156101e457600080fd5b506101ff60048036038101906101fa9190611135565b610600565b005b61020961069c565b005b34801561021757600080fd5b50610220610888565b60405161022d9190611665565b60405180910390f35b34801561024257600080fd5b5061025d60048036038101906102589190611171565b61088e565b005b34801561026b57600080fd5b50610274610a9f565b6040516102819190611665565b60405180910390f35b34801561029657600080fd5b5061029f610aa5565b6040516102ac9190611665565b60405180910390f35b3480156102c157600080fd5b506102dc60048036038101906102d791906110e3565b610aab565b005b3480156102ea57600080fd5b5061030560048036038101906103009190611171565b610ba3565b6040516103129190611428565b60405180910390f35b60065481565b60045481565b61032f610be2565b73ffffffffffffffffffffffffffffffffffffffff1661034d6105d6565b73ffffffffffffffffffffffffffffffffffffffff16146103a3576040517f08c379a000000000000000000000000000000000000000000000000000000000815260040161039a906115a5565b60405180910390fd5b6103ad6000610bea565b565b600160149054906101000a900460ff1681565b60006103cc610be2565b73ffffffffffffffffffffffffffffffffffffffff166103ea6105d6565b73ffffffffffffffffffffffffffffffffffffffff1614610440576040517f08c379a0000000000000000000000000000000000000000000000000000000008152600401610437906115a5565b60405180910390fd5b600554421015610485576040517f08c379a000000000000000000000000000000000000000000000000000000000815260040161047c90611625565b60405180910390fd5b6002600160146101000a81548160ff021916908360028111156104d1577f4e487b7100000000000000000000000000000000000000000000000000000000600052602160045260246000fd5b02179055506002547f000000000000000000000000000000000000000000000000000000000000000073ffffffffffffffffffffffffffffffffffffffff166370a08231306040518263ffffffff1660e01b81526004016105329190611428565b60206040518083038186803b15801561054a57600080fd5b505afa15801561055e573d6000803e3d6000fd5b505050506040513d601f19601f82011682018060405250810190610582919061119a565b10156105c3576040517f08c379a00000000000000000000000000000000000000000000000000000000081526004016105ba90611585565b60405180910390fd5b6105d1600454600254610cb0565b905090565b6000600160009054906101000a900473ffffffffffffffffffffffffffffffffffffffff16905090565b7f000000000000000000000000000000000000000000000000000000000000000073ffffffffffffffffffffffffffffffffffffffff163373ffffffffffffffffffffffffffffffffffffffff161461068e576040517f08c379a0000000000000000000000000000000000000000000000000000000008152600401610685906115c5565b60405180910390fd5b6106988282610e0f565b5050565b600060028111156106d6577f4e487b7100000000000000000000000000000000000000000000000000000000600052602160045260246000fd5b600160149054906101000a900460ff16600281111561071e577f4e487b7100000000000000000000000000000000000000000000000000000000600052602160045260246000fd5b1461075e576040517f08c379a000000000000000000000000000000000000000000000000000000000815260040161075590611525565b60405180910390fd5b6005544211156107a3576040517f08c379a000000000000000000000000000000000000000000000000000000000815260040161079a906115e5565b60405180910390fd5b6006543410156107e8576040517f08c379a00000000000000000000000000000000000000000000000000000000081526004016107df90611645565b60405180910390fd5b6003339080600181540180825580915050600190039060005260206000200160009091909190916101000a81548173ffffffffffffffffffffffffffffffffffffffff021916908373ffffffffffffffffffffffffffffffffffffffff1602179055507f87969bc7faf902221a147b95ceba76e011c5efb0339a0a8ee7a2bb82d9cfbbd66007543360405161087e929190611680565b60405180910390a1565b60055481565b610896610be2565b73ffffffffffffffffffffffffffffffffffffffff166108b46105d6565b73ffffffffffffffffffffffffffffffffffffffff161461090a576040517f08c379a0000000000000000000000000000000000000000000000000000000008152600401610901906115a5565b60405180910390fd5b60016002811115610944577f4e487b7100000000000000000000000000000000000000000000000000000000600052602160045260246000fd5b600160149054906101000a900460ff16600281111561098c577f4e487b7100000000000000000000000000000000000000000000000000000000600052602160045260246000fd5b146109cc576040517f08c379a00000000000000000000000000000000000000000000000000000000081526004016109c390611605565b60405180910390fd5b600360006109da919061103c565b603c426109e79190611741565b6005819055506000600160146101000a81548160ff02191690836002811115610a39577f4e487b7100000000000000000000000000000000000000000000000000000000600052602160045260246000fd5b021790555080600681905550600160076000828254610a589190611741565b925050819055507f42da29f4f7ae27bdc650322fcbe8b195ca17a63b0ae83b04577efe0e3e079c0c600754600654604051610a949291906116e0565b60405180910390a150565b60025481565b60075481565b610ab3610be2565b73ffffffffffffffffffffffffffffffffffffffff16610ad16105d6565b73ffffffffffffffffffffffffffffffffffffffff1614610b27576040517f08c379a0000000000000000000000000000000000000000000000000000000008152600401610b1e906115a5565b60405180910390fd5b600073ffffffffffffffffffffffffffffffffffffffff168173ffffffffffffffffffffffffffffffffffffffff161415610b97576040517f08c379a0000000000000000000000000000000000000000000000000000000008152600401610b8e90611545565b60405180910390fd5b610ba081610bea565b50565b60038181548110610bb357600080fd5b906000526020600020016000915054906101000a900473ffffffffffffffffffffffffffffffffffffffff1681565b600033905090565b6000600160009054906101000a900473ffffffffffffffffffffffffffffffffffffffff16905081600160006101000a81548173ffffffffffffffffffffffffffffffffffffffff021916908373ffffffffffffffffffffffffffffffffffffffff1602179055508173ffffffffffffffffffffffffffffffffffffffff168173ffffffffffffffffffffffffffffffffffffffff167f8be0079c531659141344cd1fd0a4f28419497f9722a3daafe3b4186f6b6457e060405160405180910390a35050565b60007f000000000000000000000000000000000000000000000000000000000000000073ffffffffffffffffffffffffffffffffffffffff16634000aea07f000000000000000000000000000000000000000000000000000000000000000084866000604051602001610d2492919061149c565b6040516020818303038152906040526040518463ffffffff1660e01b8152600401610d5193929190611443565b602060405180830381600087803b158015610d6b57600080fd5b505af1158015610d7f573d6000803e3d6000fd5b505050506040513d601f19601f82011682018060405250810190610da3919061110c565b506000610dc58460003060008089815260200190815260200160002054610fcd565b9050600160008086815260200190815260200160002054610de69190611741565b60008086815260200190815260200160002081905550610e068482611009565b91505092915050565b600060038054905082610e229190611855565b9050600060038281548110610e60577f4e487b7100000000000000000000000000000000000000000000000000000000600052603260045260246000fd5b9060005260206000200160009054906101000a900473ffffffffffffffffffffffffffffffffffffffff16905060008173ffffffffffffffffffffffffffffffffffffffff1647604051610eb390611413565b60006040518083038185875af1925050503d8060008114610ef0576040519150601f19603f3d011682016040523d82523d6000602084013e610ef5565b606091505b5050905080610f39576040517f08c379a0000000000000000000000000000000000000000000000000000000008152600401610f3090611565565b60405180910390fd5b7fb68d4795caccf6a757ea09449f3e0403b4016b09ba1759a597f1ef80ab8177536007548387604051610f6e939291906116a9565b60405180910390a160018060146101000a81548160ff02191690836002811115610fc1577f4e487b7100000000000000000000000000000000000000000000000000000000600052602160045260246000fd5b02179055505050505050565b600084848484604051602001610fe694939291906114c5565b6040516020818303038152906040528051906020012060001c9050949350505050565b6000828260405160200161101e9291906113e7565b60405160208183030381529060405280519060200120905092915050565b508054600082559060005260206000209081019061105a919061105d565b50565b5b8082111561107657600081600090555060010161105e565b5090565b60008135905061108981611b6d565b92915050565b60008151905061109e81611b84565b92915050565b6000813590506110b381611b9b565b92915050565b6000813590506110c881611bb2565b92915050565b6000815190506110dd81611bb2565b92915050565b6000602082840312156110f557600080fd5b60006111038482850161107a565b91505092915050565b60006020828403121561111e57600080fd5b600061112c8482850161108f565b91505092915050565b6000806040838503121561114857600080fd5b6000611156858286016110a4565b9250506020611167858286016110b9565b9150509250929050565b60006020828403121561118357600080fd5b6000611191848285016110b9565b91505092915050565b6000602082840312156111ac57600080fd5b60006111ba848285016110ce565b91505092915050565b6111cc81611797565b82525050565b6111db816117b5565b82525050565b6111f26111ed826117b5565b611841565b82525050565b600061120382611709565b61120d8185611714565b935061121d81856020860161180e565b61122681611913565b840191505092915050565b61123a816117fc565b82525050565b600061124d601d83611730565b915061125882611924565b602082019050919050565b6000611270602683611730565b915061127b8261194d565b604082019050919050565b6000611293601483611730565b915061129e8261199c565b602082019050919050565b60006112b6600f83611730565b91506112c1826119c5565b602082019050919050565b60006112d9602083611730565b91506112e4826119ee565b602082019050919050565b60006112fc601f83611730565b915061130782611a17565b602082019050919050565b600061131f603883611730565b915061132a82611a40565b604082019050919050565b6000611342600083611725565b915061134d82611a8f565b600082019050919050565b6000611365601983611730565b915061137082611a92565b602082019050919050565b6000611388602283611730565b915061139382611abb565b604082019050919050565b60006113ab602f83611730565b91506113b682611b0a565b604082019050919050565b6113ca816117f2565b82525050565b6113e16113dc826117f2565b61184b565b82525050565b60006113f382856111e1565b60208201915061140382846113d0565b6020820191508190509392505050565b600061141e82611335565b9150819050919050565b600060208201905061143d60008301846111c3565b92915050565b600060608201905061145860008301866111c3565b61146560208301856113c1565b818103604083015261147781846111f8565b9050949350505050565b600060208201905061149660008301846111d2565b92915050565b60006040820190506114b160008301856111d2565b6114be60208301846113c1565b9392505050565b60006080820190506114da60008301876111d2565b6114e760208301866113c1565b6114f460408301856111c3565b61150160608301846113c1565b95945050505050565b600060208201905061151f6000830184611231565b92915050565b6000602082019050818103600083015261153e81611240565b9050919050565b6000602082019050818103600083015261155e81611263565b9050919050565b6000602082019050818103600083015261157e81611286565b9050919050565b6000602082019050818103600083015261159e816112a9565b9050919050565b600060208201905081810360008301526115be816112cc565b9050919050565b600060208201905081810360008301526115de816112ef565b9050919050565b600060208201905081810360008301526115fe81611312565b9050919050565b6000602082019050818103600083015261161e81611358565b9050919050565b6000602082019050818103600083015261163e8161137b565b9050919050565b6000602082019050818103600083015261165e8161139e565b9050919050565b600060208201905061167a60008301846113c1565b92915050565b600060408201905061169560008301856113c1565b6116a260208301846111c3565b9392505050565b60006060820190506116be60008301866113c1565b6116cb60208301856111c3565b6116d860408301846111d2565b949350505050565b60006040820190506116f560008301856113c1565b61170260208301846113c1565b9392505050565b600081519050919050565b600082825260208201905092915050565b600081905092915050565b600082825260208201905092915050565b600061174c826117f2565b9150611757836117f2565b9250827fffffffffffffffffffffffffffffffffffffffffffffffffffffffffffffffff0382111561178c5761178b611886565b5b828201905092915050565b60006117a2826117d2565b9050919050565b60008115159050919050565b6000819050919050565b60008190506117cd82611b59565b919050565b600073ffffffffffffffffffffffffffffffffffffffff82169050919050565b6000819050919050565b6000611807826117bf565b9050919050565b60005b8381101561182c578082015181840152602081019050611811565b8381111561183b576000848401525b50505050565b6000819050919050565b6000819050919050565b6000611860826117f2565b915061186b836117f2565b92508261187b5761187a6118b5565b5b828206905092915050565b7f4e487b7100000000000000000000000000000000000000000000000000000000600052601160045260246000fd5b7f4e487b7100000000000000000000000000000000000000000000000000000000600052601260045260246000fd5b7f4e487b7100000000000000000000000000000000000000000000000000000000600052602160045260246000fd5b6000601f19601f8301169050919050565b7f47616d6520686173206e6f74206265656e207374617274656420796574000000600082015250565b7f4f776e61626c653a206e6577206f776e657220697320746865207a65726f206160008201527f6464726573730000000000000000000000000000000000000000000000000000602082015250565b7f4661696c656420746f2073656e64204574686572000000000000000000000000600082015250565b7f4e6f7420656e6f756768204c494e4b0000000000000000000000000000000000600082015250565b7f4f776e61626c653a2063616c6c6572206973206e6f7420746865206f776e6572600082015250565b7f4f6e6c7920565246436f6f7264696e61746f722063616e2066756c66696c6c00600082015250565b7f20546865206f6e6520686f75722074696d65206c696d697420656e646564206660008201527f6f72207468652067616d652d747279206e657874206f6e650000000000000000602082015250565b50565b7f47616d652069732063757272656e746c792072756e6e696e6700000000000000600082015250565b7f54696d6520666f72207468652067616d65206e6f74207965742066696e69736860008201527f6564000000000000000000000000000000000000000000000000000000000000602082015250565b7f56616c75652073656e74206973206e6f7420657175616c20746f20656e74727960008201527f466565202d20302e312065746865720000000000000000000000000000000000602082015250565b60038110611b6a57611b696118e4565b5b50565b611b7681611797565b8114611b8157600080fd5b50565b611b8d816117a9565b8114611b9857600080fd5b50565b611ba4816117b5565b8114611baf57600080fd5b50565b611bbb816117f2565b8114611bc657600080fd5b5056fea264697066735822122001edf564c770c70a583b66f42d6a6199b43e5db5be31fdcebd341363158547a864736f6c63430008040033",
  "linkReferences": {},
  "deployedLinkReferences": {}
}