{
  "_format": "hh-sol-artifact-1",
  "contractName": "LotteryTest",
  "sourceName": "contracts/external/LotteryTest.sol",
  "abi": [
    {
      "inputs": [
        {
          "internalType": "address",
          "name": "_vrfCoordinator",
          "type": "address"
        },
        {
          "internalType": "address",
          "name": "_link",
          "type": "address"
        },
        {
          "internalType": "uint256",
          "name": "_fee",
          "type": "uint256"
        }
      ],
      "stateMutability": "nonpayable",
      "type": "constructor"
    },
    {
      "anonymous": false,
      "inputs": [
        {
          "indexed": false,
          "internalType": "uint256",
          "name": "lotteryId",
          "type": "uint256"
        },
        {
          "indexed": false,
          "internalType": "address",
          "name": "winner",
          "type": "address"
        },
        {
          "indexed": false,
          "internalType": "bytes32",
          "name": "requestId",
          "type": "bytes32"
        }
      ],
      "name": "LotteryEnded",
      "type": "event"
    },
    {
      "anonymous": false,
      "inputs": [
        {
          "indexed": false,
          "internalType": "uint256",
          "name": "lotteryId",
          "type": "uint256"
        },
        {
          "indexed": false,
          "internalType": "uint256",
          "name": "entryFee",
          "type": "uint256"
        }
      ],
      "name": "LotteryStarted",
      "type": "event"
    },
    {
      "anonymous": false,
      "inputs": [
        {
          "indexed": true,
          "internalType": "address",
          "name": "previousOwner",
          "type": "address"
        },
        {
          "indexed": true,
          "internalType": "address",
          "name": "newOwner",
          "type": "address"
        }
      ],
      "name": "OwnershipTransferred",
      "type": "event"
    },
    {
      "anonymous": false,
      "inputs": [
        {
          "indexed": false,
          "internalType": "uint256",
          "name": "lotteryId",
          "type": "uint256"
        },
        {
          "indexed": false,
          "internalType": "address",
          "name": "player",
          "type": "address"
        }
      ],
      "name": "PlayerJoined",
      "type": "event"
    },
    {
      "anonymous": false,
      "inputs": [
        {
          "indexed": false,
          "internalType": "bytes32",
          "name": "requestId",
          "type": "bytes32"
        }
      ],
      "name": "RequestedRandomness",
      "type": "event"
    },
    {
      "stateMutability": "payable",
      "type": "fallback"
    },
    {
      "inputs": [],
      "name": "PlayLottery",
      "outputs": [],
      "stateMutability": "payable",
      "type": "function"
    },
    {
      "inputs": [],
      "name": "entryFee",
      "outputs": [
        {
          "internalType": "uint256",
          "name": "",
          "type": "uint256"
        }
      ],
      "stateMutability": "view",
      "type": "function"
    },
    {
      "inputs": [],
      "name": "fee",
      "outputs": [
        {
          "internalType": "uint256",
          "name": "",
          "type": "uint256"
        }
      ],
      "stateMutability": "view",
      "type": "function"
    },
    {
      "inputs": [],
      "name": "keyHash",
      "outputs": [
        {
          "internalType": "bytes32",
          "name": "",
          "type": "bytes32"
        }
      ],
      "stateMutability": "view",
      "type": "function"
    },
    {
      "inputs": [],
      "name": "lotteryId",
      "outputs": [
        {
          "internalType": "uint256",
          "name": "",
          "type": "uint256"
        }
      ],
      "stateMutability": "view",
      "type": "function"
    },
    {
      "inputs": [],
      "name": "lottery_state",
      "outputs": [
        {
          "internalType": "enum NonceBloxLottery.LOTTERY_STATE",
          "name": "",
          "type": "uint8"
        }
      ],
      "stateMutability": "view",
      "type": "function"
    },
    {
      "inputs": [],
      "name": "owner",
      "outputs": [
        {
          "internalType": "address",
          "name": "",
          "type": "address"
        }
      ],
      "stateMutability": "view",
      "type": "function"
    },
    {
      "inputs": [],
      "name": "pickRandomWinner",
      "outputs": [
        {
          "internalType": "bytes32",
          "name": "requestId",
          "type": "bytes32"
        }
      ],
      "stateMutability": "nonpayable",
      "type": "function"
    },
    {
      "inputs": [
        {
          "internalType": "uint256",
          "name": "",
          "type": "uint256"
        }
      ],
      "name": "players",
      "outputs": [
        {
          "internalType": "address",
          "name": "",
          "type": "address"
        }
      ],
      "stateMutability": "view",
      "type": "function"
    },
    {
      "inputs": [
        {
          "internalType": "bytes32",
          "name": "requestId",
          "type": "bytes32"
        },
        {
          "internalType": "uint256",
          "name": "randomness",
          "type": "uint256"
        }
      ],
      "name": "rawFulfillRandomness",
      "outputs": [],
      "stateMutability": "nonpayable",
      "type": "function"
    },
    {
      "inputs": [],
      "name": "renounceOwnership",
      "outputs": [],
      "stateMutability": "nonpayable",
      "type": "function"
    },
    {
      "inputs": [
        {
          "internalType": "uint256",
          "name": "_entryFee",
          "type": "uint256"
        }
      ],
      "name": "startLottery",
      "outputs": [],
      "stateMutability": "nonpayable",
      "type": "function"
    },
    {
      "inputs": [
        {
          "internalType": "bytes32",
          "name": "requestId",
          "type": "bytes32"
        },
        {
          "internalType": "uint256",
          "name": "_randomness",
          "type": "uint256"
        }
      ],
      "name": "testFulfillRandomnessNotStarted",
      "outputs": [],
      "stateMutability": "nonpayable",
      "type": "function"
    },
    {
      "inputs": [
        {
          "internalType": "bytes32",
          "name": "requestId",
          "type": "bytes32"
        },
        {
          "internalType": "uint256",
          "name": "_randomness",
          "type": "uint256"
        }
      ],
      "name": "testFulfillRandomnessSuccess",
      "outputs": [],
      "stateMutability": "payable",
      "type": "function"
    },
    {
      "inputs": [
        {
          "internalType": "bytes32",
          "name": "requestId",
          "type": "bytes32"
        },
        {
          "internalType": "uint256",
          "name": "_randomness",
          "type": "uint256"
        }
      ],
      "name": "testFulfillRandomnessZeroPlayers",
      "outputs": [],
      "stateMutability": "nonpayable",
      "type": "function"
    },
    {
      "inputs": [
        {
          "internalType": "bytes32",
          "name": "requestId",
          "type": "bytes32"
        },
        {
          "internalType": "uint256",
          "name": "_randomness",
          "type": "uint256"
        }
      ],
      "name": "testFulfillRandomnessZeroRandomness",
      "outputs": [],
      "stateMutability": "nonpayable",
      "type": "function"
    },
    {
      "inputs": [],
      "name": "timeLimit",
      "outputs": [
        {
          "internalType": "uint256",
          "name": "",
          "type": "uint256"
        }
      ],
      "stateMutability": "view",
      "type": "function"
    },
    {
      "inputs": [
        {
          "internalType": "address",
          "name": "newOwner",
          "type": "address"
        }
      ],
      "name": "transferOwnership",
      "outputs": [],
      "stateMutability": "nonpayable",
      "type": "function"
    },
    {
      "stateMutability": "payable",
      "type": "receive"
    }
  ],
  "bytecode": "0x60c06040527f3ebe2809e8ab9ecade58008e52868676fb39c3bd42c381c9949421a49d03541a60001b6004553480156200003857600080fd5b50604051620024f0380380620024f083398181016040528101906200005e919062000253565b82828282828173ffffffffffffffffffffffffffffffffffffffff1660a08173ffffffffffffffffffffffffffffffffffffffff1660601b815250508073ffffffffffffffffffffffffffffffffffffffff1660808173ffffffffffffffffffffffffffffffffffffffff1660601b815250505050620000f3620000e76200015760201b60201c565b6200015f60201b60201c565b8060028190555060018060146101000a81548160ff0219169083600281111562000146577f4e487b7100000000000000000000000000000000000000000000000000000000600052602160045260246000fd5b02179055505050505050506200031b565b600033905090565b6000600160009054906101000a900473ffffffffffffffffffffffffffffffffffffffff16905081600160006101000a81548173ffffffffffffffffffffffffffffffffffffffff021916908373ffffffffffffffffffffffffffffffffffffffff1602179055508173ffffffffffffffffffffffffffffffffffffffff168173ffffffffffffffffffffffffffffffffffffffff167f8be0079c531659141344cd1fd0a4f28419497f9722a3daafe3b4186f6b6457e060405160405180910390a35050565b6000815190506200023681620002e7565b92915050565b6000815190506200024d8162000301565b92915050565b6000806000606084860312156200026957600080fd5b6000620002798682870162000225565b93505060206200028c8682870162000225565b92505060406200029f868287016200023c565b9150509250925092565b6000620002b682620002bd565b9050919050565b600073ffffffffffffffffffffffffffffffffffffffff82169050919050565b6000819050919050565b620002f281620002a9565b8114620002fe57600080fd5b50565b6200030c81620002dd565b81146200031857600080fd5b50565b60805160601c60a05160601c61219b620003556000396000818161091c01526112860152600081816107f5015261124a015261219b6000f3fe60806040526004361061010d5760003560e01c806396e1200911610095578063ddca3f4311610064578063ddca3f43146102f9578063e3d4d61114610324578063e580f47b1461034d578063f2fde38b14610378578063f71d96cb146103a157610114565b806396e12009146102725780639fa7f7ea1461029b578063c08d1fe5146102a5578063c6bec93a146102d057610114565b80637bbad0c6116100dc5780637bbad0c6146101ac57806381447999146101c8578063898da229146101f35780638da5cb5b1461021e57806394985ddd1461024957610114565b8063072ea61c14610116578063293ba94e1461014157806361728f391461016a578063715018a61461019557610114565b3661011457005b005b34801561012257600080fd5b5061012b6103de565b6040516101389190611b06565b60405180910390f35b34801561014d57600080fd5b506101686004803603810190610163919061150d565b6103e4565b005b34801561017657600080fd5b5061017f6103f2565b60405161018c91906118c2565b60405180910390f35b3480156101a157600080fd5b506101aa6103f8565b005b6101c660048036038101906101c1919061150d565b610480565b005b3480156101d457600080fd5b506101dd6106c9565b6040516101ea919061194b565b60405180910390f35b3480156101ff57600080fd5b506102086106dc565b60405161021591906118c2565b60405180910390f35b34801561022a57600080fd5b506102336108f0565b6040516102409190611869565b60405180910390f35b34801561025557600080fd5b50610270600480360381019061026b919061150d565b61091a565b005b34801561027e57600080fd5b506102996004803603810190610294919061150d565b6109b6565b005b6102a3610a15565b005b3480156102b157600080fd5b506102ba610c01565b6040516102c79190611b06565b60405180910390f35b3480156102dc57600080fd5b506102f760048036038101906102f29190611549565b610c07565b005b34801561030557600080fd5b5061030e610e18565b60405161031b9190611b06565b60405180910390f35b34801561033057600080fd5b5061034b6004803603810190610346919061150d565b610e1e565b005b34801561035957600080fd5b50610362610e7d565b60405161036f9190611b06565b60405180910390f35b34801561038457600080fd5b5061039f600480360381019061039a91906114bb565b610e83565b005b3480156103ad57600080fd5b506103c860048036038101906103c39190611549565b610f7b565b6040516103d59190611869565b60405180910390f35b60065481565b6103ee8282610fba565b5050565b60045481565b610400611178565b73ffffffffffffffffffffffffffffffffffffffff1661041e6108f0565b73ffffffffffffffffffffffffffffffffffffffff1614610474576040517f08c379a000000000000000000000000000000000000000000000000000000000815260040161046b90611a46565b60405180910390fd5b61047e6000611180565b565b6000600160146101000a81548160ff021916908360028111156104cc577f4e487b7100000000000000000000000000000000000000000000000000000000600052602160045260246000fd5b02179055506104d9610a15565b60003373ffffffffffffffffffffffffffffffffffffffff163190506002600160146101000a81548160ff02191690836002811115610541577f4e487b7100000000000000000000000000000000000000000000000000000000600052602160045260246000fd5b02179055506105508383610fba565b60003373ffffffffffffffffffffffffffffffffffffffff163190503482826105799190611c38565b146105b9576040517f08c379a00000000000000000000000000000000000000000000000000000000081526004016105b0906119c6565b60405180910390fd5b600060038054905014610601576040517f08c379a00000000000000000000000000000000000000000000000000000000081526004016105f890611a26565b60405180910390fd5b6001600281111561063b577f4e487b7100000000000000000000000000000000000000000000000000000000600052602160045260246000fd5b600160149054906101000a900460ff166002811115610683577f4e487b7100000000000000000000000000000000000000000000000000000000600052602160045260246000fd5b146106c3576040517f08c379a00000000000000000000000000000000000000000000000000000000081526004016106ba906119a6565b60405180910390fd5b50505050565b600160149054906101000a900460ff1681565b60006106e6611178565b73ffffffffffffffffffffffffffffffffffffffff166107046108f0565b73ffffffffffffffffffffffffffffffffffffffff161461075a576040517f08c379a000000000000000000000000000000000000000000000000000000000815260040161075190611a46565b60405180910390fd5b60055442101561079f576040517f08c379a000000000000000000000000000000000000000000000000000000000815260040161079690611ac6565b60405180910390fd5b6002600160146101000a81548160ff021916908360028111156107eb577f4e487b7100000000000000000000000000000000000000000000000000000000600052602160045260246000fd5b02179055506002547f000000000000000000000000000000000000000000000000000000000000000073ffffffffffffffffffffffffffffffffffffffff166370a08231306040518263ffffffff1660e01b815260040161084c9190611869565b60206040518083038186803b15801561086457600080fd5b505afa158015610878573d6000803e3d6000fd5b505050506040513d601f19601f8201168201806040525081019061089c9190611572565b10156108dd576040517f08c379a00000000000000000000000000000000000000000000000000000000081526004016108d490611a06565b60405180910390fd5b6108eb600454600254611246565b905090565b6000600160009054906101000a900473ffffffffffffffffffffffffffffffffffffffff16905090565b7f000000000000000000000000000000000000000000000000000000000000000073ffffffffffffffffffffffffffffffffffffffff163373ffffffffffffffffffffffffffffffffffffffff16146109a8576040517f08c379a000000000000000000000000000000000000000000000000000000000815260040161099f90611a66565b60405180910390fd5b6109b28282610fba565b5050565b6002600160146101000a81548160ff02191690836002811115610a02577f4e487b7100000000000000000000000000000000000000000000000000000000600052602160045260246000fd5b0217905550610a118282610fba565b5050565b60006002811115610a4f577f4e487b7100000000000000000000000000000000000000000000000000000000600052602160045260246000fd5b600160149054906101000a900460ff166002811115610a97577f4e487b7100000000000000000000000000000000000000000000000000000000600052602160045260246000fd5b14610ad7576040517f08c379a0000000000000000000000000000000000000000000000000000000008152600401610ace90611966565b60405180910390fd5b600554421115610b1c576040517f08c379a0000000000000000000000000000000000000000000000000000000008152600401610b1390611a86565b60405180910390fd5b600654341015610b61576040517f08c379a0000000000000000000000000000000000000000000000000000000008152600401610b5890611ae6565b60405180910390fd5b6003339080600181540180825580915050600190039060005260206000200160009091909190916101000a81548173ffffffffffffffffffffffffffffffffffffffff021916908373ffffffffffffffffffffffffffffffffffffffff1602179055507f87969bc7faf902221a147b95ceba76e011c5efb0339a0a8ee7a2bb82d9cfbbd660075433604051610bf7929190611b21565b60405180910390a1565b60055481565b610c0f611178565b73ffffffffffffffffffffffffffffffffffffffff16610c2d6108f0565b73ffffffffffffffffffffffffffffffffffffffff1614610c83576040517f08c379a0000000000000000000000000000000000000000000000000000000008152600401610c7a90611a46565b60405180910390fd5b60016002811115610cbd577f4e487b7100000000000000000000000000000000000000000000000000000000600052602160045260246000fd5b600160149054906101000a900460ff166002811115610d05577f4e487b7100000000000000000000000000000000000000000000000000000000600052602160045260246000fd5b14610d45576040517f08c379a0000000000000000000000000000000000000000000000000000000008152600401610d3c90611aa6565b60405180910390fd5b60036000610d539190611414565b603c42610d609190611be2565b6005819055506000600160146101000a81548160ff02191690836002811115610db2577f4e487b7100000000000000000000000000000000000000000000000000000000600052602160045260246000fd5b021790555080600681905550600160076000828254610dd19190611be2565b925050819055507f42da29f4f7ae27bdc650322fcbe8b195ca17a63b0ae83b04577efe0e3e079c0c600754600654604051610e0d929190611b81565b60405180910390a150565b60025481565b6002600160146101000a81548160ff02191690836002811115610e6a577f4e487b7100000000000000000000000000000000000000000000000000000000600052602160045260246000fd5b0217905550610e798282610fba565b5050565b60075481565b610e8b611178565b73ffffffffffffffffffffffffffffffffffffffff16610ea96108f0565b73ffffffffffffffffffffffffffffffffffffffff1614610eff576040517f08c379a0000000000000000000000000000000000000000000000000000000008152600401610ef690611a46565b60405180910390fd5b600073ffffffffffffffffffffffffffffffffffffffff168173ffffffffffffffffffffffffffffffffffffffff161415610f6f576040517f08c379a0000000000000000000000000000000000000000000000000000000008152600401610f6690611986565b60405180910390fd5b610f7881611180565b50565b60038181548110610f8b57600080fd5b906000526020600020016000915054906101000a900473ffffffffffffffffffffffffffffffffffffffff1681565b600060038054905082610fcd9190611d2a565b905060006003828154811061100b577f4e487b7100000000000000000000000000000000000000000000000000000000600052603260045260246000fd5b9060005260206000200160009054906101000a900473ffffffffffffffffffffffffffffffffffffffff16905060008173ffffffffffffffffffffffffffffffffffffffff164760405161105e90611854565b60006040518083038185875af1925050503d806000811461109b576040519150601f19603f3d011682016040523d82523d6000602084013e6110a0565b606091505b50509050806110e4576040517f08c379a00000000000000000000000000000000000000000000000000000000081526004016110db906119e6565b60405180910390fd5b7fb68d4795caccf6a757ea09449f3e0403b4016b09ba1759a597f1ef80ab817753600754838760405161111993929190611b4a565b60405180910390a160018060146101000a81548160ff0219169083600281111561116c577f4e487b7100000000000000000000000000000000000000000000000000000000600052602160045260246000fd5b02179055505050505050565b600033905090565b6000600160009054906101000a900473ffffffffffffffffffffffffffffffffffffffff16905081600160006101000a81548173ffffffffffffffffffffffffffffffffffffffff021916908373ffffffffffffffffffffffffffffffffffffffff1602179055508173ffffffffffffffffffffffffffffffffffffffff168173ffffffffffffffffffffffffffffffffffffffff167f8be0079c531659141344cd1fd0a4f28419497f9722a3daafe3b4186f6b6457e060405160405180910390a35050565b60007f000000000000000000000000000000000000000000000000000000000000000073ffffffffffffffffffffffffffffffffffffffff16634000aea07f0000000000000000000000000000000000000000000000000000000000000000848660006040516020016112ba9291906118dd565b6040516020818303038152906040526040518463ffffffff1660e01b81526004016112e793929190611884565b602060405180830381600087803b15801561130157600080fd5b505af1158015611315573d6000803e3d6000fd5b505050506040513d601f19601f8201168201806040525081019061133991906114e4565b50600061135b84600030600080898152602001908152602001600020546113a5565b905060016000808681526020019081526020016000205461137c9190611be2565b6000808681526020019081526020016000208190555061139c84826113e1565b91505092915050565b6000848484846040516020016113be9493929190611906565b6040516020818303038152906040528051906020012060001c9050949350505050565b600082826040516020016113f6929190611828565b60405160208183030381529060405280519060200120905092915050565b50805460008255906000526020600020908101906114329190611435565b50565b5b8082111561144e576000816000905550600101611436565b5090565b60008135905061146181612109565b92915050565b60008151905061147681612120565b92915050565b60008135905061148b81612137565b92915050565b6000813590506114a08161214e565b92915050565b6000815190506114b58161214e565b92915050565b6000602082840312156114cd57600080fd5b60006114db84828501611452565b91505092915050565b6000602082840312156114f657600080fd5b600061150484828501611467565b91505092915050565b6000806040838503121561152057600080fd5b600061152e8582860161147c565b925050602061153f85828601611491565b9150509250929050565b60006020828403121561155b57600080fd5b600061156984828501611491565b91505092915050565b60006020828403121561158457600080fd5b6000611592848285016114a6565b91505092915050565b6115a481611c6c565b82525050565b6115b381611c8a565b82525050565b6115ca6115c582611c8a565b611d16565b82525050565b60006115db82611baa565b6115e58185611bb5565b93506115f5818560208601611ce3565b6115fe81611de8565b840191505092915050565b61161281611cd1565b82525050565b6000611625601d83611bd1565b915061163082611df9565b602082019050919050565b6000611648602683611bd1565b915061165382611e22565b604082019050919050565b600061166b601483611bd1565b915061167682611e71565b602082019050919050565b600061168e602983611bd1565b915061169982611e9a565b604082019050919050565b60006116b1601483611bd1565b91506116bc82611ee9565b602082019050919050565b60006116d4600f83611bd1565b91506116df82611f12565b602082019050919050565b60006116f7603483611bd1565b915061170282611f3b565b604082019050919050565b600061171a602083611bd1565b915061172582611f8a565b602082019050919050565b600061173d601f83611bd1565b915061174882611fb3565b602082019050919050565b6000611760603883611bd1565b915061176b82611fdc565b604082019050919050565b6000611783600083611bc6565b915061178e8261202b565b600082019050919050565b60006117a6601983611bd1565b91506117b18261202e565b602082019050919050565b60006117c9602283611bd1565b91506117d482612057565b604082019050919050565b60006117ec602f83611bd1565b91506117f7826120a6565b604082019050919050565b61180b81611cc7565b82525050565b61182261181d82611cc7565b611d20565b82525050565b600061183482856115b9565b6020820191506118448284611811565b6020820191508190509392505050565b600061185f82611776565b9150819050919050565b600060208201905061187e600083018461159b565b92915050565b6000606082019050611899600083018661159b565b6118a66020830185611802565b81810360408301526118b881846115d0565b9050949350505050565b60006020820190506118d760008301846115aa565b92915050565b60006040820190506118f260008301856115aa565b6118ff6020830184611802565b9392505050565b600060808201905061191b60008301876115aa565b6119286020830186611802565b611935604083018561159b565b6119426060830184611802565b95945050505050565b60006020820190506119606000830184611609565b92915050565b6000602082019050818103600083015261197f81611618565b9050919050565b6000602082019050818103600083015261199f8161163b565b9050919050565b600060208201905081810360008301526119bf8161165e565b9050919050565b600060208201905081810360008301526119df81611681565b9050919050565b600060208201905081810360008301526119ff816116a4565b9050919050565b60006020820190508181036000830152611a1f816116c7565b9050919050565b60006020820190508181036000830152611a3f816116ea565b9050919050565b60006020820190508181036000830152611a5f8161170d565b9050919050565b60006020820190508181036000830152611a7f81611730565b9050919050565b60006020820190508181036000830152611a9f81611753565b9050919050565b60006020820190508181036000830152611abf81611799565b9050919050565b60006020820190508181036000830152611adf816117bc565b9050919050565b60006020820190508181036000830152611aff816117df565b9050919050565b6000602082019050611b1b6000830184611802565b92915050565b6000604082019050611b366000830185611802565b611b43602083018461159b565b9392505050565b6000606082019050611b5f6000830186611802565b611b6c602083018561159b565b611b7960408301846115aa565b949350505050565b6000604082019050611b966000830185611802565b611ba36020830184611802565b9392505050565b600081519050919050565b600082825260208201905092915050565b600081905092915050565b600082825260208201905092915050565b6000611bed82611cc7565b9150611bf883611cc7565b9250827fffffffffffffffffffffffffffffffffffffffffffffffffffffffffffffffff03821115611c2d57611c2c611d5b565b5b828201905092915050565b6000611c4382611cc7565b9150611c4e83611cc7565b925082821015611c6157611c60611d5b565b5b828203905092915050565b6000611c7782611ca7565b9050919050565b60008115159050919050565b6000819050919050565b6000819050611ca2826120f5565b919050565b600073ffffffffffffffffffffffffffffffffffffffff82169050919050565b6000819050919050565b6000611cdc82611c94565b9050919050565b60005b83811015611d01578082015181840152602081019050611ce6565b83811115611d10576000848401525b50505050565b6000819050919050565b6000819050919050565b6000611d3582611cc7565b9150611d4083611cc7565b925082611d5057611d4f611d8a565b5b828206905092915050565b7f4e487b7100000000000000000000000000000000000000000000000000000000600052601160045260246000fd5b7f4e487b7100000000000000000000000000000000000000000000000000000000600052601260045260246000fd5b7f4e487b7100000000000000000000000000000000000000000000000000000000600052602160045260246000fd5b6000601f19601f8301169050919050565b7f47616d6520686173206e6f74206265656e207374617274656420796574000000600082015250565b7f4f776e61626c653a206e6577206f776e657220697320746865207a65726f206160008201527f6464726573730000000000000000000000000000000000000000000000000000602082015250565b7f4c6f7474657279206469646e277420636c6f7365000000000000000000000000600082015250565b7f496e636f727265637420616d6f756e74207472616e73666572656420746f207460008201527f68652077696e6e65720000000000000000000000000000000000000000000000602082015250565b7f4661696c656420746f2073656e64204574686572000000000000000000000000600082015250565b7f4e6f7420656e6f756768204c494e4b0000000000000000000000000000000000600082015250565b7f506c6179657273206172726179206973206e6f742073657420746f20656d707460008201527f79206166746572206c6f747465727920656e6473000000000000000000000000602082015250565b7f4f776e61626c653a2063616c6c6572206973206e6f7420746865206f776e6572600082015250565b7f4f6e6c7920565246436f6f7264696e61746f722063616e2066756c66696c6c00600082015250565b7f20546865206f6e6520686f75722074696d65206c696d697420656e646564206660008201527f6f72207468652067616d652d747279206e657874206f6e650000000000000000602082015250565b50565b7f47616d652069732063757272656e746c792072756e6e696e6700000000000000600082015250565b7f54696d6520666f72207468652067616d65206e6f74207965742066696e69736860008201527f6564000000000000000000000000000000000000000000000000000000000000602082015250565b7f56616c75652073656e74206973206e6f7420657175616c20746f20656e74727960008201527f466565202d20302e312065746865720000000000000000000000000000000000602082015250565b6003811061210657612105611db9565b5b50565b61211281611c6c565b811461211d57600080fd5b50565b61212981611c7e565b811461213457600080fd5b50565b61214081611c8a565b811461214b57600080fd5b50565b61215781611cc7565b811461216257600080fd5b5056fea26469706673582212208a287139ac98907c01c253716d983af961ce35ae4fd25f86251a0418f1a49a4964736f6c63430008040033",
  "linkReferences": {},
  "deployedLinkReferences": {}
}