{
  "_format": "hh-sol-artifact-1",
  "contractName": "VRFCoordinatorMock",
  "sourceName": "contracts/external/VRFCoordinatorMock.sol",
  "abi": [
    {
      "inputs": [
        {
          "internalType": "address",
          "name": "linkAddress",
          "type": "address"
        }
      ],
      "stateMutability": "nonpayable",
      "type": "constructor"
    },
    {
      "anonymous": false,
      "inputs": [
        {
          "indexed": true,
          "internalType": "address",
          "name": "sender",
          "type": "address"
        },
        {
          "indexed": true,
          "internalType": "bytes32",
          "name": "keyHash",
          "type": "bytes32"
        },
        {
          "indexed": true,
          "internalType": "uint256",
          "name": "seed",
          "type": "uint256"
        }
      ],
      "name": "RandomnessRequest",
      "type": "event"
    },
    {
      "inputs": [],
      "name": "LINK",
      "outputs": [
        {
          "internalType": "contract LinkTokenInterface",
          "name": "",
          "type": "address"
        }
      ],
      "stateMutability": "view",
      "type": "function"
    },
    {
      "inputs": [
        {
          "internalType": "bytes32",
          "name": "requestId",
          "type": "bytes32"
        },
        {
          "internalType": "uint256",
          "name": "randomness",
          "type": "uint256"
        },
        {
          "internalType": "address",
          "name": "consumerContract",
          "type": "address"
        }
      ],
      "name": "callBackWithRandomness",
      "outputs": [],
      "stateMutability": "nonpayable",
      "type": "function"
    },
    {
      "inputs": [
        {
          "internalType": "address",
          "name": "sender",
          "type": "address"
        },
        {
          "internalType": "uint256",
          "name": "fee",
          "type": "uint256"
        },
        {
          "internalType": "bytes",
          "name": "_data",
          "type": "bytes"
        }
      ],
      "name": "onTokenTransfer",
      "outputs": [],
      "stateMutability": "nonpayable",
      "type": "function"
    }
  ],
  "bytecode": "0x608060405234801561001057600080fd5b5060405161096a38038061096a8339818101604052810190610032919061008d565b806000806101000a81548173ffffffffffffffffffffffffffffffffffffffff021916908373ffffffffffffffffffffffffffffffffffffffff160217905550506100ff565b600081519050610087816100e8565b92915050565b60006020828403121561009f57600080fd5b60006100ad84828501610078565b91505092915050565b60006100c1826100c8565b9050919050565b600073ffffffffffffffffffffffffffffffffffffffff82169050919050565b6100f1816100b6565b81146100fc57600080fd5b50565b61085c8061010e6000396000f3fe608060405234801561001057600080fd5b50600436106100415760003560e01c80631b6b6d2314610046578063a4c0ed3614610064578063cf55fe9714610080575b600080fd5b61004e61009c565b60405161005b919061059a565b60405180910390f35b61007e600480360381019061007991906103c4565b6100c0565b005b61009a60048036038101906100959190610467565b6101b5565b005b60008054906101000a900473ffffffffffffffffffffffffffffffffffffffff1681565b60008054906101000a900473ffffffffffffffffffffffffffffffffffffffff1673ffffffffffffffffffffffffffffffffffffffff163373ffffffffffffffffffffffffffffffffffffffff161461014e576040517f08c379a0000000000000000000000000000000000000000000000000000000008152600401610145906105d5565b60405180910390fd5b60008082806020019051810190610165919061042b565b9150915080828673ffffffffffffffffffffffffffffffffffffffff167f7a9a0a6960d95b32cded93c30e63e7c2eb9e877230813c172110ea54dc1c915c60405160405180910390a45050505050565b6000806394985ddd60e01b85856040516024016101d3929190610571565b604051602081830303815290604052907bffffffffffffffffffffffffffffffffffffffffffffffffffffffff19166020820180517bffffffffffffffffffffffffffffffffffffffffffffffffffffffff838183161783525050505090506000620324b09050805a101561027d576040517f08c379a0000000000000000000000000000000000000000000000000000000008152600401610274906105b5565b60405180910390fd5b60008473ffffffffffffffffffffffffffffffffffffffff16836040516102a4919061055a565b6000604051808303816000865af19150503d80600081146102e1576040519150601f19603f3d011682016040523d82523d6000602084013e6102e6565b606091505b5050905050505050505050565b60006103066103018461061a565b6105f5565b90508281526020810184848401111561031e57600080fd5b6103298482856106dc565b509392505050565b600081359050610340816107e1565b92915050565b600081359050610355816107f8565b92915050565b60008151905061036a816107f8565b92915050565b600082601f83011261038157600080fd5b81356103918482602086016102f3565b91505092915050565b6000813590506103a98161080f565b92915050565b6000815190506103be8161080f565b92915050565b6000806000606084860312156103d957600080fd5b60006103e786828701610331565b93505060206103f88682870161039a565b925050604084013567ffffffffffffffff81111561041557600080fd5b61042186828701610370565b9150509250925092565b6000806040838503121561043e57600080fd5b600061044c8582860161035b565b925050602061045d858286016103af565b9150509250929050565b60008060006060848603121561047c57600080fd5b600061048a86828701610346565b935050602061049b8682870161039a565b92505060406104ac86828701610331565b9150509250925092565b6104bf81610684565b82525050565b60006104d08261064b565b6104da8185610656565b93506104ea8185602086016106eb565b80840191505092915050565b6104ff816106b8565b82525050565b6000610512601b83610661565b915061051d8261078f565b602082019050919050565b6000610535601383610661565b9150610540826107b8565b602082019050919050565b610554816106ae565b82525050565b600061056682846104c5565b915081905092915050565b600060408201905061058660008301856104b6565b610593602083018461054b565b9392505050565b60006020820190506105af60008301846104f6565b92915050565b600060208201905081810360008301526105ce81610505565b9050919050565b600060208201905081810360008301526105ee81610528565b9050919050565b60006105ff610610565b905061060b828261071e565b919050565b6000604051905090565b600067ffffffffffffffff8211156106355761063461074f565b5b61063e8261077e565b9050602081019050919050565b600081519050919050565b600081905092915050565b600082825260208201905092915050565b600061067d8261068e565b9050919050565b6000819050919050565b600073ffffffffffffffffffffffffffffffffffffffff82169050919050565b6000819050919050565b60006106c3826106ca565b9050919050565b60006106d58261068e565b9050919050565b82818337600083830152505050565b60005b838110156107095780820151818401526020810190506106ee565b83811115610718576000848401525b50505050565b6107278261077e565b810181811067ffffffffffffffff821117156107465761074561074f565b5b80604052505050565b7f4e487b7100000000000000000000000000000000000000000000000000000000600052604160045260246000fd5b6000601f19601f8301169050919050565b7f6e6f7420656e6f7567682067617320666f7220636f6e73756d65720000000000600082015250565b7f4d75737420757365204c494e4b20746f6b656e00000000000000000000000000600082015250565b6107ea81610672565b81146107f557600080fd5b50565b61080181610684565b811461080c57600080fd5b50565b610818816106ae565b811461082357600080fd5b5056fea26469706673582212206e81b9d139afdcae68d0725d9c7ad24f88bd102fef17bffa636bb600f9fcc38564736f6c63430008040033",
  "linkReferences": {},
  "deployedLinkReferences": {}
}